:020000040000fa
:080000000002040000000000f2
:020000040000fa
:100400002f0021000eff26000e01880000000000d2
:100410000c000700804d2000010020000f000700a5
:10042000000020000000e000020032000000020096
:1004300000000000ba040200000000000040da00e2
:100440000000fe00000020000000e000020032007a
:10045000000020009001880000000600a102880032
:10046000800078000000eb001a003700e2804000b6
:1004700054a0b4009101ba00e280400054a0b4003e
:100480009102ba00e280400054a0b4000002eb00e8
:10049000472bde00f507b200a6018800602ce100c2
:1004a00008003a000049eb000201e80002003900b0
:1004b0003420ec0002f0a0008301e900f9ff3e00c7
:1004c000040037006128e100010032000082eb00e7
:1004d000040007001101ba000200e000e3ff3a0047
:1004e0000000060004d0a300e20f49001c00390000
:1004f000810278003549ba000201e80002003900a3
:100500003420ec0002f0a0008301e9000f0032006b
:100510002549ba000201e800020039003420ec004d
:1005200002f0a0008301e900080032000400e000ae
:100530000600320015c9ba000201e80002003900c5
:100540003420ec0002f0a0008301e9008180e80083
:1005500054a0b4000300e000e2ff3a0000000600ef
:100560009102ba00055978008301e900f7ff3200d3
:10057000c82ade00055978008301e900f3ff320044
:100580000400e000f1ff320011d9ba00eeff37009d
:080590000040da000000fe004b
:020000040000fa
:020000040001f9
:045ff000bfff0000ef
:020000040000fa
:10000800c8020000c8020000c8020000c8020000c0
:10001800c8020000c8020000c8020000c8020000b0
:10002800c8020000c8020000c802000092040000d4
:10003800c8020000c8020000c8020000c802000090
:10004800c8020000c8020000c8020000c802000080
:10005800c8020000c8020000c8020000c802000070
:10006800c8020000c8020000c8020000c802000060
:020000040000fa
:100598000000fa008000eb0000c02000010878008d
:1005a800813e200040c02000010878008000eb0058
:1005b80080c2200001087800411f200060c220008e
:1005c800010878008000eb00a0c220000108780034
:1005d8008000eb00c0c2200001087800d1bc2a00ce
:1005e800e0c120000108780011322400e0c1200099
:1005f8000108780001c02c0020c220000108780002
:100608008000eb0000c2200001087800d1bc2a005d
:10061800e0c120000108780011322400e0c1200068
:10062800010878003100200040c22000010878004d
:100638003100200020c020000108780001002800b7
:1006480000c02000010878000000eb000080fa00dc
:10065800000006000000fa008000eb0000c0200047
:1006680001087800813e200040c020000108780081
:100678008000eb0080c220000108780001322000d1
:1006880060c22000010878008000eb00a0c22000b2
:10069800010878008000eb00c0c220000108780043
:1006a800d1bc2a00e0c120000108780011322400e2
:1006b800e0c120000108780001c02c0020c2200001
:1006c800010878008000eb0000c2200001087800d3
:1006d800d1bc2a00e0c120000108780011322400b2
:1006e800e0c12000010878003100200040c220004d
:1006f800010878003100200020c02000010878009f
:100708000100280000c02000010878000000eb006c
:100718000080fa00000006000000fa008000eb00ec
:1007280000c0200001087800813e200040c0200061
:10073800010878008000eb0080c2200001087800e2
:10074800813e200060c22000010878008000eb0094
:10075800a0c22000010878008000eb00c0c2200081
:1007680001087800d1bc2a00e0c120000108780007
:1007780011322400e0c120000108780001c02c00db
:1007880020c22000010878008000eb0000c2200091
:1007980001087800d1bc2a00e0c1200001087800d7
:1007a80011322400e0c12000010878003100200047
:1007b80040c22000010878003100200020c020003d
:1007c800010878000100280000c020000108780016
:1007d8000000eb000080fa00000006000000fa00ac
:1007e8008000eb0000c0200001087800813e200056
:1007f80040c02000010878008000eb0080c2200083
:1008080001087800810c200060c2200001087800ef
:100818008000eb00a0c22000010878008000eb00f7
:10082800c0c2200001087800d1bc2a00e0c1200025
:100838000108780011322400e0c120000108780086
:1008480001c02c0020c22000010878008000eb00c5
:1008580000c2200001087800d1bc2a00e0c12000b5
:100868000108780011322400e0c120000108780056
:100878003100200040c2200001087800310020002b
:1008880020c02000010878000100280000c02000d6
:10089800010878000000eb000080fa000000060064
:1008a8000000fa008000eb004010200001087800ea
:1008b8004010200090407800f0ccb30000c06000e9
:1008c80001c2b30001407000411020008048780048
:1008d8001084200090407800f0c8b30000c0600089
:1008e80001c5b300014070001184200080487800e1
:1008f8002068a8000068a90001242000201020001a
:10090800010878008000eb00001020000108780042
:1009180005e1a8000080fa0000000600801f7800aa
:100928000000fa00008080000000e80000808800d5
:100938000068a9000080fa004f0078000040060017
:100948000400fa001007980000808000000f78006b
:10095800008080009e0050001e009000808f500094
:10096800fbff39000080fa00000006000000fa00d2
:10097800e1ff2f0000e020000108780011002000ae
:1009880040e0200001087800803e2000ecff0700ce
:100998008000eb0040e0200001087800803e200045
:0809a800e7ff0700f5ff37002f
:020000040000fa
:1009b00000100000020000008200000000000000a3
:0409c0000000000033
:00000001FF
